:100000000C942A000C9434000C9434000C943400AA
:100010000C9434000C9434000C9434000C94340090
:100020000C9434000C9434000C9434000C94340080
:100030000C9434000C9434000C9434000C94340070
:100040000C9434000C9434000C9434000C94340060
:100050000C94340011241FBECFE5D8E0DEBFCDBF25
:100060000E9491000C94A4000C9400009C0183E079
:1000700083BF83E808C082BF98B7916098BFA895F6
:1000800008B600FEFDCF21503109A8F713BE089530
:1000900014BA15BA44B321E030E0F90102C0EE0F02
:1000A000FF1F8A95E2F7CF014E2B44BB95B3809595
:1000B000892385BB23B330E06C5F7F4F02C0359549
:1000C00027956A95E2F781E090E020FF02C080E08A
:1000D00090E008950F931F93CF93DF9300E010E01B
:1000E00018C0BE01C8010E944800009749F0000FE7
:1000F000111F000F111FC00FD11FCE0101960CC0A0
:100100002196C430D10569F70F5F1F4F04301105E8
:1001100019F0C0E0D0E0E5CFDF91CF911F910F91B2
:100120000895B99A0E946A008C0118161906D4F72E
:10013000C0E0D0E0C19A84EF91E00E9436002196A1
:0C0140000C171D07B9F7EECFF894FFCFA5
:00000001FF
