:100000000C9438000C944D000C944D000C944D0051
:100010000C944D000C944D000C944D000C944D002C
:100020000C944D000C944D000C944D000C944D001C
:100030000C944D000C944D000C944D000C944D000C
:100040000C944D000C944D000C944D000C944D00FC
:100050000C944D009D02B702C602E002EF020503B8
:100060001903330342035C036B0385039403AE035C
:1000700011241FBECFE5D8E0DEBFCDBF10E0A0E663
:10008000B0E0ECE3F1E102C005900D92A63DB107AE
:10009000D9F70E94E5040C949C080C9400008FE0B2
:1000A00081BD08959C0183E083BF83E808C082BFBF
:1000B00098B7916098BFA89508B600FEFDCF215073
:1000C0003109A8F713BE0895662311F0C09A01C044
:1000D000C098C19882BB8FEF81BBC29A000000001C
:1000E0000000C2980895C098C19A11BA90B3C29AFC
:1000F00000000000000011BA90B3C29899239CF34D
:100100000E9464000895B89AB99ABA9A80E190E082
:100110000E94520060E080E30E94640085E090E06D
:100120000E94520060E080E30E94640081E090E061
:100130000E94520060E08CE30E94730060E08CE05B
:100140000E94730060E086E00E94730060E081E03E
:100150000E947300089560E081E00E94730008959A
:10016000CF93C62F98E2899FC00D112460E082E0F2
:100170000E947300CC2331F060E084E10E947300A0
:10018000C150D1F7CF910895CF93DF93EC01219621
:10019000FC018081882331F061E00E947300899125
:1001A0008111FACFDF91CF9108959C018370992737
:1001B000892BA1F4C90164E670E00E948405892BB3
:1001C00081F4C90160E971E00E94840521E030E01A
:1001D000892B09F020E0822F932F089580E090E092
:1001E000089581E090E00895EF92FF920F931F939E
:1001F000CF93DF93CDB7DEB761970FB6F894DEBF2C
:100200000FBECDBF8C0160E081E00E94B000F8011C
:1002100086859785892B09F040C084859585813036
:100220009105E1F481818F9380818F9383818F93F6
:1002300082818F9385818F9384818F9380E690E074
:100240009F938F93CE0101969F938F930E94B20547
:100250000FB6F894DEBF0FBECDBF3BC0892BC9F5EA
:10026000F80181818F9380818F9383818F93828125
:100270008F9385818F9384818F9384E790E09F9300
:100280008F93CE0101969F938F930E94B2050FB674
:10029000F894DEBF0FBECDBF1CC0F80181818F93E3
:1002A00080818F9383818F9382818F9385818F93B8
:1002B00084818F9387E890E09F938F93CE0101967E
:1002C0009F938F930E94B2050FB6F894DEBF0FBEC6
:1002D000CDBFFE0131967F01CF010E94C40060E0D6
:1002E00080E00E94B000F80183858F9382858F9310
:1002F00081858F9380858F9387818F9386818F935C
:100300008AE990E09F938F93FF92EF920E94B2054B
:10031000C7010E94C4000FB6F894DEBF0FBECDBF68
:1003200061960FB6F894DEBF0FBECDBFDF91CF91BF
:100330001F910F91FF90EF900895CF93DF9314BA20
:1003400015BA44B321E030E0F90102C0EE0FFF1FFF
:100350008A95E2F7CF014E2B44BB95B38095892354
:1003600085BB84B3EB0124960C2E02C0220F331FF1
:100370000A94E2F7922F9095892384BB85B3282BAA
:1003800025BB81E090E00E94520023B330E002C020
:1003900035952795CA95E2F781E090E020FF02C0ED
:1003A00080E090E0DF91CF9108950F931F93CF935A
:1003B000DF9300E010E01CC0BE01C8010E949D0157
:1003C000009769F08CE291E00E945200000F111F2B
:1003D000000F111FC00FD11FCE0101960CC0219636
:1003E000C430D10549F70F5F1F4F0430110519F0D4
:1003F000C0E0D0E0E1CFDF91CF911F910F91089540
:100400008130910519F18230910519F18330910500
:1004100019F18430910519F18530910519F1863073
:10042000910519F18730910519F18930910519F17C
:100430008A30910519F18B30910519F188309105B9
:1004400019F10E9721F18CE090E0089581E090E0A1
:10045000089582E090E0089583E090E008958AE0B6
:1004600090E0089584E090E0089585E090E008959C
:1004700086E090E0089587E090E0089588E090E0BD
:10048000089589E090E008958BE090E0089580E081
:1004900090E00895BF92CF92DF92EF92FF920F9378
:1004A0001F93CF93DF93CDB7DEB765970FB6F89460
:1004B000DEBF0FBECDBF8C0160E080E00E94B000C7
:1004C0000E94AB0089E0E9EAF0E0DE0111960190BC
:1004D0000D928A95E1F7CE0101960E94C40088EE44
:1004E00093E00E9452000E94AB001B8A1A8ACC241F
:1004F000C394D12C0F2EF4E6BF2EF02D0F2EF8EE64
:10050000EF2EF3E0FF2EF02D54C1C8010E94F4003D
:100510000E94D5010E9400029D8B8C8B8C899D8945
:100520000A970CF046C1EA89FB89EE30F10508F024
:1005300024C1E65DFF4F0C9498058C899D899C0130
:10054000220F331F880F991F880F991F880F991F3B
:10055000820F931FF80126813781820F931F9783A3
:1005600086838A899B8901969B8B8A8B22C18C8981
:100570009D89F80126813781820F931F9783868397
:100580008A899B8901969B8B8A8B13C18C899D8953
:100590009C01220F331F880F991F880F991F880F06
:1005A000991F820F931FF80120853185820F931FB9
:1005B000918780878A899B8901969B8B8A8BF9C05A
:1005C0008C899D89F80120853185820F931F918741
:1005D00080878A899B8901969B8B8A8BEAC02C89AC
:1005E0003D892E9DC0012F9D900D3E9D900D1124A3
:1005F000F80122853385820F931F938782878A892A
:100600009B8901969B8B8A8BD4C02C893D89B29E95
:10061000C001B39E900D1124F80122853385820F0D
:10062000931F938782878A899B8901969B8B8A8BEC
:10063000C0C08C899D899C01220F331F880F991F90
:10064000880F991F880F991F820F931FF801228529
:100650003385820F931F938782878A899B890196AE
:100660009B8B8A8BA6C08C899D89F8012285338556
:10067000820F931F938782878A899B8901969B8B20
:100680008A8B97C08C899D899C01220F331F880F0C
:10069000991F880F991F880F991F820F931FF801C8
:1006A00024813581820F931F958384838A899B8956
:1006B00001969B8B8A8B7DC08C899D89F801248152
:1006C0003581820F931F958384838A899B89019644
:1006D0009B8B8A8B6EC08C899D899C01220F331F56
:1006E000880F991F880F991F880F991F820F931FDA
:1006F000F80122813381820F931F938382838A8939
:100700009B8901969B8B8A8B54C08C899D89F801AB
:1007100022813381820F931F938382838A899B89ED
:1007200001969B8B8A8B45C08C899D899C01220FE9
:10073000331F880F991F880F991F880F991F820FE9
:10074000931FF80120813181820F931F9183808351
:100750008A899B8901969B8B8A8B2BC08C899D896A
:10076000F80120813181820F931F918380838A89D0
:100770009B8901969B8B8A8B1CC08C899D89892BB8
:1007800031F4F80117861686D586C4860DC08C898B
:100790009D89019731F4F80117861686158614860F
:1007A00003C0F801D786C6868A899B8901969B8BF0
:1007B0008A8B8A899B890F970CF4A7CE0E94AB0085
:1007C00060E080E00E94B0008AE0E2EBF0E0DE0151
:1007D000119601900D928A95E1F7CE0101960E9443
:1007E000C40088EE93E00E9452000E94AB00659620
:1007F0000FB6F894DEBF0FBECDBFDF91CF911F9132
:100800000F91FF90EF90DF90CF90BF900895FC0183
:100810008681978182309105B1F09C012D7F213036
:100820003105A1F085309105A1F09C0127503109D7
:100830002230310588F08A30910589F00C9791F0CB
:100840008EE190E008958CE190E008958FE190E0D2
:1008500008958FE190E008958FE190E008958FE191
:1008600090E008958FE190E00895CF93DF93EC013D
:1008700088EE93E00E9452008881998101968C3322
:10088000910519F09983888307C0198218828A819B
:100890009B8101969B838A838A819B81CC9779F582
:1008A0001B821A828C819D8101969D838C832E856B
:1008B0003F85232BD9F48C30910589F48C859D8557
:1008C000019719F41D861C861AC081E090E09D876F
:1008D0008C878885998501969987888710C00D97A0
:1008E00071F481E090E09D838C8309C0489739F4CE
:1008F0001D821C8288859985019699878887CE01FB
:100900000E9407048E31910571F4888599854F976F
:10091000F1F581E090E0998788878E819F8101962B
:100920009F838E8334C08F31910571F488859985BA
:10093000809769F581E090E0998788878E819F8113
:1009400001969F838E8323C04C9709F58A859B85EA
:100950000E94D500892B71F0888599854E97B9F44E
:1009600081E090E0998788878E819F8101969F839F
:100970008E830DC0888599854D9749F481E090E07C
:10098000998788878E819F8101969F838E838E8130
:100990009F810D9749F481E090E09F838E838A8543
:1009A0009B8501969B878A87DF91CF910895FC01F3
:1009B000118210821382128215821482118610868F
:1009C00017821682138612860895CF93DF93CDB7D0
:1009D000DEB7A1970FB6F894DEBF0FBECDBF80E89B
:1009E00084BF84BF0E9483000E944F00CE014296C4
:1009F0000E94D70401E010E0EE24E394F12C0F2EC6
:100A0000FCE0CF2ED12CF02D0E94D5010E940002D7
:100A10008A30910569F4CE0142960E94D704CE0136
:100A200042960E944A020E94AB0000E010E0ECCF28
:100A30000B9709F04BC0AA88BB888C889D880E94C0
:100A4000AB0060E080E00E94B0008AE0ECEBF0E0F8
:100A5000DE01119601900D928A95E1F7CE01019683
:100A60000E94C40084EF91E00E9452000E94AB00FB
:100A700088A199A1892B61F4F9A2E8A28E8D9F8D9E
:100A8000892BF9F48E899F890C969F8B8E8B19C0C8
:100A900019A218A28E899F898C30910519F41F8E96
:100AA0001E8E0FC08D30910534F01F8E1E8E0C9758
:100AB0009F8B8E8B06C0892B21F4FF8EEE8EDF8AF2
:100AC000CE8A9D8A8C8ABB8AAA8A9ECF011511057F
:100AD00049F4CE0142960E943504CE0142960E940E
:100AE000F40092CF60E080E00E94B00080E1E6EC8C
:100AF000F0E0DE01119601900D928A95E1F7CE01AA
:100B000001960E94C40080CF97FB072E16F4009434
:100B100007D077FD09D00E949E0507FC05D03EF462
:100B2000909581959F4F0895709561957F4F089599
:100B3000EE0FFF1F0590F491E02D0994AA1BBB1B3B
:100B400051E107C0AA1FBB1FA617B70710F0A61BCD
:100B5000B70B881F991F5A95A9F780959095BC01EE
:100B6000CD010895AEE0B0E0E8EBF5E00C94730839
:100B70000D891E8986E08C831A8309838FEF9FE796
:100B80009E838D83AE01475E5F4F6F89788DCE0166
:100B900001960E94D405EF81F885E00FF11F1082C5
:100BA0002E96E4E00C948F08ABE0B0E0EAEDF5E0BF
:100BB0000C9465086C017B018A01FC011782168286
:100BC000838181FFCCC1CE0101963C01F601938166
:100BD000F70193FD859193FF81917F01882309F4AB
:100BE000BAC1853239F493FD859193FF81917F01DC
:100BF000853229F4B60190E00E94CB07E7CF912C13
:100C0000212C312CFFE1F315D8F08B3279F038F438
:100C1000803279F08332A1F4232D20611DC08D3202
:100C200061F0803369F4232D216016C0832D82602A
:100C3000382EE32DE4603E2E2AC0F32DF8601DC04F
:100C400037FC2DC020ED280F2A3040F08E32B9F449
:100C500036FC81C1232D2064322E19C036FE06C019
:100C60008AE0989E200D1124922E11C0EAE02E9E5B
:100C7000200D1124222EF32DF0623F2E08C08C3659
:100C800021F4832D8068382E02C0883641F4F701A4
:100C900093FD859193FF81917F018111B3CF982FAF
:100CA0009F7D9554933028F40C5F1F4F9FE39983E9
:100CB0000DC0833631F0833771F0833509F059C0A8
:100CC00021C0F801808189830E5F1F4F882483949F
:100CD000912C530113C02801F2E04F0E511CF80172
:100CE000A080B18036FE03C0692D70E002C06FEFB6
:100CF0007FEFC5010E94C0074C018201F32DFF77F1
:100D00003F2E16C0280122E0420E511CF801A0809F
:100D1000B18036FE03C0692D70E002C06FEF7FEF37
:100D2000C5010E94B5074C01F32DF0683F2E8201EA
:100D300033FC1BC0822D90E088169906B0F4B601F2
:100D400080E290E00E94CB072A94F4CFF50137FCB3
:100D5000859137FE81915F01B60190E00E94CB073B
:100D600021102A9421E0821A91088114910471F7CC
:100D7000E8C0843611F0893641F5F80137FE07C026
:100D800060817181828193810C5F1F4F08C06081F7
:100D90007181072E000C880B990B0E5F1F4FF32DEE
:100DA000FF763F2E97FF09C09095809570956195CD
:100DB0007F4F8F4F9F4FF0683F2E2AE030E0A30116
:100DC0000E940708882E861845C0853731F4232DE8
:100DD0002F7EB22E2AE030E025C0932D997FB92EC8
:100DE0008F36C1F018F4883579F0B5C0803719F026
:100DF000883721F0B0C0E92FE061BE2EB4FE0DC0EF
:100E0000FB2DF460BF2E09C034FE0AC0292F2660D6
:100E1000B22E06C028E030E005C020E130E002C07C
:100E200020E132E0F801B7FE07C060817181828164
:100E300093810C5F1F4F06C06081718180E090E05C
:100E40000E5F1F4FA3010E940708882E8618FB2DF6
:100E5000FF773F2E36FE0DC0232D2E7FA22E891444
:100E600058F434FE0BC032FC09C0832D8E7EA82EB0
:100E700005C0B82CA32C03C0B82C01C0B92CA4FE0B
:100E80000FC0FE01E80DF11D8081803321F49A2D01
:100E9000997EA92E09C0A2FE06C0B394B39404C0E3
:100EA0008A2D867809F0B394A3FC11C0A0FE06C079
:100EB000B21488F4280C922C9B180EC0B21460F463
:100EC000B60180E290E00E94CB07B394F7CFB21452
:100ED00018F42B1802C0982C212CA4FE10C0B601C7
:100EE00080E390E00E94CB07A2FE17C0A1FC03C0E4
:100EF00088E790E002C088E590E0B6010CC08A2D3A
:100F0000867859F0A1FE02C08BE201C080E2A7FC06
:100F10008DE2B60190E00E94CB07891438F4B60147
:100F200080E390E00E94CB079A94F7CF8A94F30174
:100F3000E80DF11D8081B60190E00E94CB07811081
:100F4000F5CF222009F442CEB60180E290E00E9463
:100F5000CB072A94F6CFF6018681978102C08FEFE6
:100F60009FEF2B96E2E10C948108FC010590615003
:100F700070400110D8F7809590958E0F9F1F0895AF
:100F8000FC016150704001900110D8F78095909558
:100F90008E0F9F1F08950F931F93CF93DF93FB0135
:100FA000238121FD03C08FEF9FEF2CC022FF16C0CD
:100FB00046815781248135814217530744F4A0812B
:100FC000B1819D012F5F3F4F318320838C93268118
:100FD00037812F5F3F4F3783268314C08B01EC018D
:100FE000FB010084F185E02D0995892BE1F6D801FC
:100FF00016968D919C911797019617969C938E93B8
:101000001697CE01DF91CF911F910F910895FA01AC
:10101000AA27283051F1203181F1E8946F936E7F37
:101020006E5F7F4F8F4F9F4FAF4FB1E03ED0B4E028
:101030003CD0670F781F891F9A1FA11D680F791F69
:101040008A1F911DA11D6A0F711D811D911DA11D7A
:1010500020D009F468943F912AE0269F112430198A
:10106000305D3193DEF6CF010895462F4770405D25
:101070004193B3E00FD0C9F7F6CF462F4F70405DD4
:101080004A3318F0495D31FD4052419302D0A9F72F
:10109000EACFB4E0A6959795879577956795BA9529
:1010A000C9F700976105710508959B01AC010A2EEF
:1010B00006945795479537952795BA95C9F7620FC6
:1010C000731F841F951FA01D08952F923F924F926A
:1010D0005F926F927F928F929F92AF92BF92CF92C8
:1010E000DF92EF92FF920F931F93CF93DF93CDB7D1
:1010F000DEB7CA1BDB0B0FB6F894DEBF0FBECDBF49
:1011000009942A88398848885F846E847D848C8419
:101110009B84AA84B984C884DF80EE80FD800C8122
:101120001B81AA81B981CE0FD11D0FB6F894DEBF05
:0C1130000FBECDBFED010895F894FFCF75
:10113C00253032693A253032693A253032692061DE
:10114C002E6D2E00253032693A253032693A253021
:10115C00326920702E6D00253032693A25303269A3
:10116C003A25303269206D696C00253032693A2598
:10117C003032693A25303269005365742054696DF8
:10118C006500656E6420696E7075740053776974C0
:10119C006368696E67004E6F7420696E697469616B
:0611AC006C697A65640025
:00000001FF
